{
  "abi": [
    {
      "inputs": [
        {
          "internalType": "address",
          "name": "initialOwner",
          "type": "address"
        },
        {
          "internalType": "address",
          "name": "tokenAddress",
          "type": "address"
        },
        {
          "internalType": "address",
          "name": "priceFeedAddress",
          "type": "address"
        }
      ],
      "stateMutability": "nonpayable",
      "type": "constructor"
    },
    {
      "inputs": [],
      "name": "EnforcedPause",
      "type": "error"
    },
    {
      "inputs": [],
      "name": "ExpectedPause",
      "type": "error"
    },
    {
      "inputs": [
        {
          "internalType": "address",
          "name": "owner",
          "type": "address"
        }
      ],
      "name": "OwnableInvalidOwner",
      "type": "error"
    },
    {
      "inputs": [
        {
          "internalType": "address",
          "name": "account",
          "type": "address"
        }
      ],
      "name": "OwnableUnauthorizedAccount",
      "type": "error"
    },
    {
      "inputs": [],
      "name": "ReentrancyGuardReentrantCall",
      "type": "error"
    },
    {
      "anonymous": false,
      "inputs": [
        {
          "indexed": true,
          "internalType": "address",
          "name": "previousOwner",
          "type": "address"
        },
        {
          "indexed": true,
          "internalType": "address",
          "name": "newOwner",
          "type": "address"
        }
      ],
      "name": "OwnershipTransferred",
      "type": "event"
    },
    {
      "anonymous": false,
      "inputs": [
        {
          "indexed": false,
          "internalType": "address",
          "name": "account",
          "type": "address"
        }
      ],
      "name": "Paused",
      "type": "event"
    },
    {
      "anonymous": false,
      "inputs": [
        {
          "indexed": false,
          "internalType": "address",
          "name": "account",
          "type": "address"
        }
      ],
      "name": "Unpaused",
      "type": "event"
    },
    {
      "inputs": [
        {
          "internalType": "uint256",
          "name": "tokensToBuy",
          "type": "uint256"
        }
      ],
      "name": "buyTokens",
      "outputs": [],
      "stateMutability": "payable",
      "type": "function"
    },
    {
      "inputs": [
        {
          "internalType": "uint256",
          "name": "tokensToBuy",
          "type": "uint256"
        }
      ],
      "name": "getPriceInBNB",
      "outputs": [
        {
          "internalType": "uint256",
          "name": "",
          "type": "uint256"
        }
      ],
      "stateMutability": "view",
      "type": "function"
    },
    {
      "inputs": [],
      "name": "getValues",
      "outputs": [
        {
          "internalType": "uint256",
          "name": "availableTokens",
          "type": "uint256"
        },
        {
          "internalType": "uint256",
          "name": "tokenPriceInNativeToken",
          "type": "uint256"
        },
        {
          "internalType": "uint32",
          "name": "tokenPriceInCents",
          "type": "uint32"
        },
        {
          "internalType": "uint8",
          "name": "tokenDecimals",
          "type": "uint8"
        }
      ],
      "stateMutability": "view",
      "type": "function"
    },
    {
      "inputs": [],
      "name": "owner",
      "outputs": [
        {
          "internalType": "address",
          "name": "",
          "type": "address"
        }
      ],
      "stateMutability": "view",
      "type": "function"
    },
    {
      "inputs": [],
      "name": "paused",
      "outputs": [
        {
          "internalType": "bool",
          "name": "",
          "type": "bool"
        }
      ],
      "stateMutability": "view",
      "type": "function"
    },
    {
      "inputs": [],
      "name": "priceFeed",
      "outputs": [
        {
          "internalType": "contract AggregatorV3Interface",
          "name": "",
          "type": "address"
        }
      ],
      "stateMutability": "view",
      "type": "function"
    },
    {
      "inputs": [],
      "name": "renounceOwnership",
      "outputs": [],
      "stateMutability": "nonpayable",
      "type": "function"
    },
    {
      "inputs": [
        {
          "internalType": "uint32",
          "name": "cents",
          "type": "uint32"
        }
      ],
      "name": "setTokenPrice",
      "outputs": [],
      "stateMutability": "nonpayable",
      "type": "function"
    },
    {
      "inputs": [],
      "name": "token",
      "outputs": [
        {
          "internalType": "contract ERC20",
          "name": "",
          "type": "address"
        }
      ],
      "stateMutability": "view",
      "type": "function"
    },
    {
      "inputs": [
        {
          "internalType": "address",
          "name": "newOwner",
          "type": "address"
        }
      ],
      "name": "transferOwnership",
      "outputs": [],
      "stateMutability": "nonpayable",
      "type": "function"
    },
    {
      "inputs": [
        {
          "internalType": "address",
          "name": "recipient",
          "type": "address"
        }
      ],
      "name": "withdrawCoins",
      "outputs": [],
      "stateMutability": "nonpayable",
      "type": "function"
    },
    {
      "inputs": [
        {
          "internalType": "address",
          "name": "recipient",
          "type": "address"
        }
      ],
      "name": "withdrawTokens",
      "outputs": [],
      "stateMutability": "nonpayable",
      "type": "function"
    },
    {
      "stateMutability": "payable",
      "type": "receive"
    }
  ],
  "bytecode": {
    "object": "0x60c06040523480156200001157600080fd5b50604051620013c2380380620013c283398101604081905262000034916200020d565b826001600160a01b0381166200006557604051631e4fbdf760e01b8152600060048201526024015b60405180910390fd5b6200007081620001a0565b50600180556002805460ff191690556001600160a01b038316620000d75760405162461bcd60e51b815260206004820152601460248201527f496e76616c696420696e697469616c4f776e657200000000000000000000000060448201526064016200005c565b6001600160a01b0382166200012f5760405162461bcd60e51b815260206004820152601460248201527f496e76616c696420746f6b656e4164647265737300000000000000000000000060448201526064016200005c565b6001600160a01b038116620001875760405162461bcd60e51b815260206004820152601860248201527f496e76616c69642070726963654665656441646472657373000000000000000060448201526064016200005c565b6001600160a01b039182166080521660a0525062000257565b600080546001600160a01b038381166001600160a01b0319831681178455604051919092169283917f8be0079c531659141344cd1fd0a4f28419497f9722a3daafe3b4186f6b6457e09190a35050565b80516001600160a01b03811681146200020857600080fd5b919050565b6000806000606084860312156200022357600080fd5b6200022e84620001f0565b92506200023e60208501620001f0565b91506200024e60408501620001f0565b90509250925092565b60805160a05161110d620002b5600039600081816102320152818161055101526105db0152600081816102dc015281816103060152818161039e015281816106fc01528181610890015281816109d00152610a99015261110d6000f3fe6080604052600436106100ab5760003560e01c8063715018a611610064578063715018a61461020b578063741bef1a146102205780638da5cb5b1461026c578063deda97731461028a578063f2fde38b146102aa578063fc0c546a146102ca57600080fd5b806319eb4a9014610118578063235dd3d6146101655780633610724e1461019357806349df728c146101a85780635c975abb146101c85780635ffbdf10146101eb57600080fd5b366101135760405162461bcd60e51b815260206004820152602d60248201527f5468697320636f6e747261637420646f6573206e6f742061636365707420646960448201526c72656374207061796d656e747360981b60648201526084015b60405180910390fd5b600080fd5b34801561012457600080fd5b5061012d6102fe565b60405161015c9493929190938452602084019290925263ffffffff16604083015260ff16606082015260800190565b60405180910390f35b34801561017157600080fd5b50610185610180366004610e57565b6104a7565b60405190815260200161015c565b6101a66101a1366004610e57565b6106d5565b005b3480156101b457600080fd5b506101a66101c3366004610e70565b61095e565b3480156101d457600080fd5b5060025460ff16604051901515815260200161015c565b3480156101f757600080fd5b506101a6610206366004610e70565b610bd1565b34801561021757600080fd5b506101a6610ca1565b34801561022c57600080fd5b506102547f000000000000000000000000000000000000000000000000000000000000000081565b6040516001600160a01b03909116815260200161015c565b34801561027857600080fd5b506000546001600160a01b0316610254565b34801561029657600080fd5b506101a66102a5366004610ea0565b610cb5565b3480156102b657600080fd5b506101a66102c5366004610e70565b610d2e565b3480156102d657600080fd5b506102547f000000000000000000000000000000000000000000000000000000000000000081565b6000806000807f00000000000000000000000000000000000000000000000000000000000000006001600160a01b031663313ce5676040518163ffffffff1660e01b8152600401602060405180830381865afa158015610362573d6000803e3d6000fd5b505050506040513d601f19601f820116820180604052508101906103869190610ec6565b6040516370a0823160e01b81523060048201529091507f00000000000000000000000000000000000000000000000000000000000000006001600160a01b0316906370a0823190602401602060405180830381865afa1580156103ed573d6000803e3d6000fd5b505050506040513d601f19601f820116820180604052508101906104119190610ee9565b93503063235dd3d661042483600a610ffe565b61042f90600161100d565b6040518263ffffffff1660e01b815260040161044d91815260200190565b602060405180830381865afa15801561046a573d6000803e3d6000fd5b505050506040513d601f19601f8201168201806040525081019061048e9190610ee9565b60025494959094610100900463ffffffff169350909150565b600254600090610100900463ffffffff166104fd5760405162461bcd60e51b8152602060048201526016602482015275151bdad95b881c1c9a58d9481a5cc81b9bdd081cd95d60521b604482015260640161010a565b6000821161054d5760405162461bcd60e51b815260206004820152601e60248201527f546f6b656e7320746f20627579206d75737420626520706f7369746976650000604482015260640161010a565b60007f00000000000000000000000000000000000000000000000000000000000000006001600160a01b031663feaf968c6040518163ffffffff1660e01b815260040160a060405180830381865afa1580156105ad573d6000803e3d6000fd5b505050506040513d601f19601f820116820180604052508101906105d19190611043565b50505091505060007f00000000000000000000000000000000000000000000000000000000000000006001600160a01b031663313ce5676040518163ffffffff1660e01b8152600401602060405180830381865afa158015610637573d6000803e3d6000fd5b505050506040513d601f19601f8201168201806040525081019061065b9190610ec6565b61066690600a610ffe565b61067883670de0b6b3a7640000611093565b610682919061100d565b600254909150600090670de0b6b3a7640000906106aa90610100900463ffffffff168761100d565b6106b49190611093565b905060646106c2838361100d565b6106cc9190611093565b95945050505050565b6106dd610d69565b6106e5610d93565b6040516370a0823160e01b815230600482015281907f00000000000000000000000000000000000000000000000000000000000000006001600160a01b0316906370a0823190602401602060405180830381865afa15801561074b573d6000803e3d6000fd5b505050506040513d601f19601f8201168201806040525081019061076f9190610ee9565b10156107b35760405162461bcd60e51b8152602060048201526013602482015272496e73756666696369656e7420746f6b656e7360681b604482015260640161010a565b6040516311aee9eb60e11b815260048101829052600090309063235dd3d690602401602060405180830381865afa1580156107f2573d6000803e3d6000fd5b505050506040513d601f19601f820116820180604052508101906108169190610ee9565b9050803410156108745760405162461bcd60e51b815260206004820152602360248201527f496e73756666696369656e7420616d6f756e74206f66206e617469766520636f604482015262696e7360e81b606482015260840161010a565b60405163a9059cbb60e01b8152336004820152602481018390527f00000000000000000000000000000000000000000000000000000000000000006001600160a01b03169063a9059cbb906044016020604051808303816000875af11580156108e1573d6000803e3d6000fd5b505050506040513d601f19601f8201168201806040525081019061090591906110b5565b6109515760405162461bcd60e51b815260206004820152601960248201527f556e61626c6520746f207472616e7366657220746f6b656e7300000000000000604482015260640161010a565b5061095b60018055565b50565b610966610db7565b61096e610de4565b6001600160a01b0381166109b85760405162461bcd60e51b8152602060048201526011602482015270125b9d985b1a5908149958da5c1a595b9d607a1b604482015260640161010a565b6040516370a0823160e01b81523060048201526000907f00000000000000000000000000000000000000000000000000000000000000006001600160a01b0316906370a0823190602401602060405180830381865afa158015610a1f573d6000803e3d6000fd5b505050506040513d601f19601f82011682018060405250810190610a439190610ee9565b11610a845760405162461bcd60e51b8152602060048201526011602482015270496e737566666963696e742066756e647360781b604482015260640161010a565b6040516370a0823160e01b81523060048201527f00000000000000000000000000000000000000000000000000000000000000006001600160a01b03169063a9059cbb90839083906370a0823190602401602060405180830381865afa158015610af2573d6000803e3d6000fd5b505050506040513d601f19601f82011682018060405250810190610b169190610ee9565b6040516001600160e01b031960e085901b1681526001600160a01b03909216600483015260248201526044016020604051808303816000875af1158015610b61573d6000803e3d6000fd5b505050506040513d601f19601f82011682018060405250810190610b8591906110b5565b61095b5760405162461bcd60e51b815260206004820152601960248201527f556e61626c6520746f20776974686472617720746f6b656e7300000000000000604482015260640161010a565b610bd9610db7565b6001600160a01b038116610c235760405162461bcd60e51b8152602060048201526011602482015270125b9d985b1a5908149958da5c1a595b9d607a1b604482015260640161010a565b60004711610c685760405162461bcd60e51b8152602060048201526012602482015271496e73756666696369656e742066756e647360701b604482015260640161010a565b6040516001600160a01b038216904780156108fc02916000818181858888f19350505050158015610c9d573d6000803e3d6000fd5b5050565b610ca9610db7565b610cb36000610e07565b565b610cbd610db7565b60008163ffffffff1611610d0c5760405162461bcd60e51b815260206004820152601660248201527543656e7473206d75737420626520706f73697469766560501b604482015260640161010a565b6002805463ffffffff9092166101000264ffffffff0019909216919091179055565b610d36610db7565b6001600160a01b038116610d6057604051631e4fbdf760e01b81526000600482015260240161010a565b61095b81610e07565b600260015403610d8c57604051633ee5aeb560e01b815260040160405180910390fd5b6002600155565b60025460ff1615610cb35760405163d93c066560e01b815260040160405180910390fd5b6000546001600160a01b03163314610cb35760405163118cdaa760e01b815233600482015260240161010a565b60025460ff16610cb357604051638dfc202b60e01b815260040160405180910390fd5b600080546001600160a01b038381166001600160a01b0319831681178455604051919092169283917f8be0079c531659141344cd1fd0a4f28419497f9722a3daafe3b4186f6b6457e09190a35050565b600060208284031215610e6957600080fd5b5035919050565b600060208284031215610e8257600080fd5b81356001600160a01b0381168114610e9957600080fd5b9392505050565b600060208284031215610eb257600080fd5b813563ffffffff81168114610e9957600080fd5b600060208284031215610ed857600080fd5b815160ff81168114610e9957600080fd5b600060208284031215610efb57600080fd5b5051919050565b634e487b7160e01b600052601160045260246000fd5b600181815b80851115610f53578160001904821115610f3957610f39610f02565b80851615610f4657918102915b93841c9390800290610f1d565b509250929050565b600082610f6a57506001610ff8565b81610f7757506000610ff8565b8160018114610f8d5760028114610f9757610fb3565b6001915050610ff8565b60ff841115610fa857610fa8610f02565b50506001821b610ff8565b5060208310610133831016604e8410600b8410161715610fd6575081810a610ff8565b610fe08383610f18565b8060001904821115610ff457610ff4610f02565b0290505b92915050565b6000610e9960ff841683610f5b565b8082028115828204841417610ff857610ff8610f02565b805169ffffffffffffffffffff8116811461103e57600080fd5b919050565b600080600080600060a0868803121561105b57600080fd5b61106486611024565b945060208601519350604086015192506060860151915061108760808701611024565b90509295509295909350565b6000826110b057634e487b7160e01b600052601260045260246000fd5b500490565b6000602082840312156110c757600080fd5b81518015158114610e9957600080fdfea2646970667358221220f79cc13d4d513e1f9d5118aadd0ff2437575076623f1c4ee31d9a1ea4bb3fb6e64736f6c63430008150033",
    "linkReferences": {}
  },
  "methodIdentifiers": {
    "buyTokens(uint256)": "3610724e",
    "getPriceInBNB(uint256)": "235dd3d6",
    "getValues()": "19eb4a90",
    "owner()": "8da5cb5b",
    "paused()": "5c975abb",
    "priceFeed()": "741bef1a",
    "renounceOwnership()": "715018a6",
    "setTokenPrice(uint32)": "deda9773",
    "token()": "fc0c546a",
    "transferOwnership(address)": "f2fde38b",
    "withdrawCoins(address)": "5ffbdf10",
    "withdrawTokens(address)": "49df728c"
  },
  "id": 27
}